:020000040800F2
:10000000FCFF0020312800002928000029280000DA
:10001000292800002928000029280000292800009C
:10002000292800002928000029280000292800008C
:10003000292800002928000029280000292800007C
:10004000292800002928000029280000292800006C
:10005000292800002928000029280000292800005C
:10006000292800002928000029280000292800004C
:10007000292800002928000029280000292800003C
:10008000292800002928000029280000292800002C
:10009000292800002928000029280000292800001C
:1000A000292800002928000029280000292800000C
:1000B00029280000292800002928000029280000FC
:1000C00029280000292800002928000029280000EC
:1000D00029280000292800002928000029280000DC
:1000E00029280000292800002928000029280000CC
:1000F00029280000292800002928000029280000BC
:1001000029280000292800002928000029280000AB
:10011000292800002928000029280000292800009B
:10012000292800002928000029280000292800008B
:10013000292800002928000029280000292800007B
:10014000292800002928000029280000292800006B
:1001500081B000F218010A68C2F3400181F0010188
:10016000C9B2C8B201B0704701480068704700BF0B
:100170001001002083B0CDF800E000F0FF031A0961
:10018000104603F00F02134614E0194A02921FE0D2
:10019000184A02921CE0184A029219E0174A029289
:1001A00016E0174A029213E0164A029210E0164A2D
:1001B00002920DE00028E8D00128E9D00228EAD018
:1001C0000328EBD00428ECD00528EDD00628EED08B
:1001D000012212B29A40ADF8042002980A46BDF8F6
:1001E000041000F07FFCDDF800E003B0704700BFB2
:1001F00000080140000C01400010014000140140C3
:1002000000180140001C01400020014081B000F2B4
:1002100014010A6800F218010968090442EA0101A0
:10022000084601B07047FFFF82B0CDF800E0CFB2C2
:1002300001469846029B4FF000064FF00005C44C63
:10024000A14207D1C34CD4F80090C34C2568C34CDD
:1002500025600BE0C24CA14207D1C24C2068C24CC1
:100260002568BE4C2560814600E0A946BF4CC4F815
:100270000090F4E101F210057C00A4B244F0010406
:10028000A4B22C60019616464F46019A01F214045E
:100290002568C5F3400464B9B44C246844B127B957
:1002A0000320AE4C2468A047E2E1781E0746FFE732
:1002B000ECE700250C6865F38A240C6001F2140455
:1002C000206800BF01F218042468240440EA0404F2
:1002D0002046012B05D101250C6865F349240C60EB
:1002E00004E001250C6865F308240C609F4C256828
:1002F0009146984637460E469D49304600F02EFA04
:1003000068B99A4C24684CB125B90320934C2468F1
:10031000A047ADE16C1E20460546FFE7ECE707EB82
:10032000090506F2100424682C70B8F1010F13D1EE
:100330008E4C216830460568C5F340245CB98B4C6F
:1003400024683CB121B90320844C2468A0478FE184
:10035000491EFFE7EFE712E0844C2168304605684C
:10036000C5F300245CB9814C24683CB121B9032059
:100370007A4C2468A0477BE1491EFFE7EFE777E16D
:1003800001250C6865F38A240C6001250C6865F36F
:10039000CB240C6001F210057C00A4B244F00104EF
:1003A000A4B22C604F4601F214042568C5F3400442
:1003B00064B96E4C246844B127B90320674C2468A3
:1003C000A04755E1781E0746FFE7ECE701F2140469
:1003D000206800BF01F2180424682404204300258B
:1003E0000C6865F38A240C60604C276801F21404E1
:1003F0002568C5F3800464B95C4C246844B127B90E
:100400000320564C2468A04732E1781E0746FFE7D8
:10041000ECE7012B05D101250C6865F349240C603C
:1004200004E001250C6865F308240C60951901F2BD
:10043000100424682C70741C151901F2100424682F
:100440002C70012B14D1494C22680D68C5F340244F
:1004500064B9464C246844B122B903203F4C246857
:10046000A04705E1501E0246FFE7EEE7084613E00D
:100470003E4C22680D68C5F3002464B93B4C2468E7
:1004800044B122B90320354C2468A047F0E0501E47
:100490000246FFE7EEE708460025046865F3CB2433
:1004A0000460E5E001250C6865F38A240C6001F224
:1004B00010057C00A4B244F00104A4B22C604646AE
:1004C000C846894617461D462A49484600F046F95F
:1004D00078B9264C24685CB1B8F1000F04D1032030
:1004E0001E4C2468A047C3E0A8F101008046FFE746
:1004F000EAE70021A8464A46B1463B46A9F1030473
:10050000A14222D2194C25688A4617461E46184930
:10051000384600F023F960B9144C246844B125B979
:1005200003200E4C2468A047A2E0681E0546FFE7A2
:10053000EDE706EB0A0507F2100424682C700AF1B7
:100540000104214633463A46D8E7084C00F014B877
:1005500000540040DC00002018010020140100209D
:1005600000580040E00000201C010020E4000020B2
:100570004000030002000300276801930B46164663
:100580004246019906F214042568C5F3800464B953
:10059000394C246844B127B90320384C2468A0475B
:1005A00066E0781E0746FFE7ECE70025346865F350
:1005B0008A243460CD1806F2100424682C70581C6C
:1005C0002D4C23681746024606F214042568C5F32D
:1005D000800464B9284C246844B123B90320274C13
:1005E0002468A04744E0581E0346FFE7ECE7012FCC
:1005F00007D10125346865F349243460104632463A
:1006000021E00125346865F3082434601A4CD4F8DD
:10061000008017460D461A49304600F09FF878B919
:10062000154C24685CB1B8F1000F04D10320134CC1
:100630002468A0471CE0A8F101008046FFE7EAE734
:100640002946324638460D1802F2100424682C70F0
:10065000441C0D1902F2100424682C7008E0B8F153
:10066000010F3FF407AEB8F1020F3FF489AE19E76E
:10067000DDF800E002B07047E40000201401002023
:100680000100030001490860704700BF98812142C2
:1006900001490860704700BFA481224201490860F7
:1006A000704700BFA081224201490860704700BF27
:1006B0008C01224201490860704700BF9401214229
:1006C00001490860704700BF9C81214201490860D0
:1006D000704700BFA881224201490860704700BFEF
:1006E000B481224201490860704700BF880122425C
:1006F00001490860704700BF90012142014908602C
:10070000704700BFA801224201490860704700BF3E
:100710008001214201490860704700BFB0012242B8
:1007200001490860704700BFAC01224201490860DE
:10073000704700BF9881214201490860704700BF9F
:100740009481224201490860704700BF988122428B
:1007500001490860704700BF9C81214281B0CDF8FB
:1007600000E00B46FFF752FD00EA03029A4240F216
:10077000000200D10122D0B2DDF800E001B07047E4
:1007800081B0CDF800E008B413460A46C1B204486F
:10079000FFF74AFD01B0DDF800E001B0704700BF8F
:1007A0000054004081B0CDF800E04FF0000219493C
:1007B000884207D118490B6818490A6818490A6025
:1007C0001C460BE01749884207D117490B681749A7
:1007D0000A6813490A601C4600E0144614490C607C
:1007E00003461846FFF7B4FC70B91149096851B1C6
:1007F0002CB905200A4C2468A047002005E0611EA2
:1008000008460446FFE7ECE70120DDF800E001B010
:10081000704700BF00540040DC0000201801002099
:100820001401002000580040E00000201C010020BE
:10083000E400002001490860704700BFA80122427F
:1008400001490860704700BFB881224281B0CDF8ED
:1008500000E008B413460A46C1B20448FFF7E4FCBE
:1008600001B0DDF800E001B0704700BF0058004063
:1008700001490860704700BFAC012242014908608D
:10088000704700BFB081224201490860704700BF35
:10089000B081224201490860704700BFB001224286
:1008A00082B0CDF800E0034619460191FFF75CFCE9
:1008B00040F2E83100FB01F201990A601F49097812
:1008C000C1F30311C8B21E4909180878C0B21A1D35
:1008D0001968C140116019490988C1F3022188B221
:1008E000174909180878C0B203F20802191D0968EF
:1008F000C140116011490988C1F3C22188B2104971
:1009000009180878C0B203F20C02191D0968C14029
:1009100011600A490988C1F3813188B2094909186F
:100920000978C8B203F2100203F20C010968B1FBA6
:10093000F0F11160DDF800E002B0704704100240F1
:100940008C2C0000AC26000081B0194900EA01019E
:10095000084600220EE0042022E0082020E01020BB
:100960001EE020201CE040201AE0802018E040F229
:10097000001015E00F498842EDD00F498842ECD0B5
:100980000E498842EBD00E498842EAD00D49884290
:10099000E9D00D498842E8D00C498842E7D010469A
:1009A0000B49096841EA000209490A6001B0704731
:1009B00000FCFFFF00080140000C01400010014056
:1009C0000014014000180140001C014000200140BB
:1009D0001810024081B0CDF800E0012252B23E4929
:1009E0000A6000F268010B686FF0006103EA01021F
:1009F000144603F00061C90E0B4602F00041B1F14C
:100A0000004F02D135490A6801E035490A6804F40B
:100A10007021090C0E464FF6FF7104EA01010D46E4
:100A200004F44011B1F5401F0DD16FF0706102EA7E
:100A300001010E462A490A686FF070610A40284990
:100A40000A60324616E004F48011B1F5801F09D126
:100A50004FF00301B140C94302EA010141F0706166
:100A60000A4607E0610D090105FA01F1C9430A4090
:100A700042F070622BB1610D090105FA01F10A43E0
:100A8000FFE704F00041B1F1004F02D113490A60C1
:100A900001E013490A6040F2000A81464FEA8A01E8
:100AA00009EB01010968B1F1FF3F10D009F13401F0
:100AB0004FEA8A03C91809680A4609EB0301096865
:100AC00008461146FFF756FB0AF1010AE6E7DDF892
:100AD00000E001B0704700BF000342421C0001402B
:100AE0000400014081B0CDF800E08CB21546774B90
:100AF00000EA03031E461846FFF726FFB4F1FF0F76
:100B00000CD1734B9D4203D14FF033333360D9E0A6
:100B1000422D03D14FF044333360D3E04FF6FF73DF
:100B20009C4214D16A4B9D4207D14FF0333333605E
:100B3000341D4FF033332360C4E0422D07D14FF012
:100B400044333360341D4FF044332360BAE0002156
:100B5000002005F001030BB100211DE005F00203A8
:100B600033B105F4C0730BB1082100E0042113E098
:100B700005F0040333B105F020030BB1042100E0BC
:100B8000002109E005F0080333B105F020030BB1A3
:100B90000C2100E00821FFE74E4B05EA03030BB1EF
:100BA000032009E005F400730BB1022004E005F412
:100BB00080630BB10120FFE705F00C030BB101438B
:100BC000FFE704F0FF039BB2002B3BD03768002007
:100BD0001FFA84F832462E4608282CD24FF0010323
:100BE00003FA00F408EA0403A34222D185004FF07F
:100BF0000F03AB40DB4307EA030401FA05F344EAC1
:100C000003031D4606F48173B3F5817F05D102F21B
:100C100014044FF001038340236006F08203822B0B
:100C200005D102F210044FF00103834023602F46E8
:100C3000FFE7401CD0E717601FFA88F00F463146E7
:100C4000164602E00F462946A0B2B0F1FF0F39D98F
:100C5000331DD3F800800022082A30D202F20804A3
:100C60004FF0010303FA04F400EA0403A34224D181
:100C700095004FF00F03AB40DB4308EA030807FA87
:100C800005F348EA030801F48173B3F5817F07D1C6
:100C900006F2140502F208044FF00103A3402B6092
:100CA00001F08203822B07D106F2100502F208043C
:100CB0004FF00103A3402B60FFE7521CCCE7331D2C
:100CC000C3F80080DDF800E001B0704700FCFFFFD2
:100CD000140008000008080089B0CDF800E0834641
:100CE00098B28C46BDF824100A9E04ACADF80410EE
:100CF000ADF808002046FFF7D3FDBDF80800BDF8A9
:100D00000410644CA34512D101256DB2624C2560DC
:100D1000624D634C2560634D634C2560634D644CAC
:100D20002560644D644C2560079C039456E0634C39
:100D3000A34512D101256DB2614C2560614D584C1F
:100D40002560614D584C2560604D594C2560604DC3
:100D5000594C2560069C039440E05E4CA34512D19B
:100D600001256DB25C4C25605C4D4D4C25605C4DA1
:100D70004D4C25605B4D4E4C25605B4D4E4C2560C7
:100D8000069C03942AE0594CA34512D101256DB26B
:100D9000574C2560574D424C2560574D424C2560BD
:100DA000564D434C2560564D434C2560069C03949C
:100DB00014E0544CA34511D101256DB2524C25606D
:100DC000524D374C2560524D374C2560514D384CB3
:100DD0002560514D384C2560069C0394ADF80410F5
:100DE000ADF808003046FFF7F5FDBDF80800BDF886
:100DF00004100BF1100500242C600BF110052C6879
:100E00000C432C600BF10C0500242C6018B140F44D
:100E1000806080B2FFE70BF10C052C6804432C6066
:100E20000BF10C060125346865F34D3434600BF189
:100E30000C060125346865F3C30434600BF10C061D
:100E40000125346865F3820434600BF11405002435
:100E50002C60039D192465434FEA8C04B5FBF4F71D
:100E60006424B7FBF4F42601350964246C433C1B6D
:100E7000240104F232056424B5FBF4F404F00F04F9
:100E800046EA04040BF10805A4B22C60DDF800E08A
:100E900009B0704700380140380342427D1A000013
:100EA0002C0100208519000030010020BD14000035
:100EB00034010020A5140000380100200044004047
:100EC000C40342424D150000D51400001D1500005A
:100ED0000515000000480040C8034242ED1800001C
:100EE000ED14000011140000F9130000004C004044
:100EF000CC03424295180000291400007114000030
:100F00005914000000500040D003424289140000F0
:100F10004114000035150000D518000088B0CDF848
:100F200000E00E46554B98420DD1012464B2544B5B
:100F30001C60544C544B1C60544C554B1C60554C1D
:100F4000554B1C600FE0554B98420CD1012464B204
:100F5000534B1C60534C4C4B1C60534C4C4B1C6013
:100F6000524C4D4B1C60019602901046FFF732FD2B
:100F70000298019E031D1B689CB26FF03F0304EAB8
:100F800003039DB203AB01901846FFF789FC01985B
:100F9000059F059C464BB4FBF3F399B29BB245EA1F
:100FA0000304A4B2031D1C600024036864F300035F
:100FB000036000223F4B9E4212D87300B7FBF3F44C
:100FC000A4B2042C02D204231C46FFE742EA040325
:100FD0009AB200F220044B1C9BB2236091B23FE016
:100FE000032306FB03F4B7FBF4F31FFA83F819237A
:100FF00006FB03F5B7FBF5F31FFA83F908FB04F4CE
:1010000009FB05F33C1BFB1A9C4205D203237343E7
:10101000B7FBF3F4A4B206E019237343B7FBF3F470
:10102000A4B244F4804440F6FF7304EA030313B906
:1010300044F00104FFE744F400439BB21A4392B228
:1010400000F2200540F22C1301FB03F4A4B240F29D
:10105000E833B4FBF3F39BB25B1C9BB22B6091B201
:1010600000F21C031960002303600124036864F389
:1010700000030360DDF800E008B070470054004052
:10108000D40342429D190000200100208107000086
:1010900024010020B1180000280100200058004061
:1010A000D8034242991A00004D080000611900005F
:1010B00040420F00A086010082B0CDF800E0029E01
:1010C0004FF00005564CA04206D1564C2768564CAE
:1010D0002568564C25600AE0554CA04206D1554C77
:1010E0002768554C2568514C256000E02F46534C2D
:1010F000276000F210054C00A4B22C60B9460746E8
:10110000904635461E464E493846FFF727FB88B9BC
:101110004A4C24686CB1B9F1000F06D10420434C4D
:101120002468A0474FF6FF7076E0A9F101008146E0
:10113000FFE7E8E70020019729463746019E7C1E1D
:10114000A04226D206F2100508EB000424782C6099
:101150003A4CD4F8009082460D463A493046FFF7A3
:10116000FDFA88B9354C24686CB1B9F1000F06D18D
:1011700004202E4C2468A0474FF6FF704CE0A9F1E4
:1011800001008146FFE7E8E70AF10104204629460D
:10119000D5E706F2100508EB000424782C60274CF4
:1011A00027680D4628493046FFF7D8FA70B9234C16
:1011B000246854B137B904201C4C2468A0474FF66A
:1011C000FF7029E0781E0746FFE7EBE7012D05D108
:1011D0000125346865F3492434601CE00125346836
:1011E00065F308243460154C2768354617492846AE
:1011F000FFF7B4FA78B9114C24685CB137B9042010
:101200000A4C2468A0474FF6FF7005E07C1E20467C
:101210000746FFE7EAE70020DDF800E002B070478C
:1012200000540040DC0000201801002014010020C0
:1012300000580040E00000201C010020E4000020D5
:1012400082000700800007008400070001000300FF
:1012500082B0CDF800E040F20004ADF80440044C48
:101260002468A047BDF90400DDF800E002B0704733
:10127000F400002081B010B5904208BF2AE040EA97
:1012800002044FEA4404002C08BF23E0440004D1C8
:10129000944201D4A41C012C1CE04FEA40044FEA04
:1012A0001464FF2C0AD14FEA42044FEA1464FF2C65
:1012B00004D14FEAD274B4EBD0340BE0002A06D448
:1012C000002802DC0024012C04E0904202E0002807
:1012D00048BF8242BDE8104001B0704781B002684B
:1012E000C2F3401101B9FAE7011D096888B201B0E3
:1012F0007047FFFF81B00168C1F3401001B0704733
:1013000081B00168C1F3801001B0704781B0ADF8C1
:1013100000100146BDF800000B68C3F3C01202B90B
:10132000FAE70A1D106001B07047FFFF83B0CDF8E7
:1013300000E003464FF0000026498B4206D12649C3
:101340000C6826490A6826490A600BE025498B4249
:1013500007D12549086825490A6821490A600446D9
:1013600000E0044622490C60019402931846FFF7FE
:1013700019FA029B019C10B94FF6FF7025E001227B
:10138000196862F30821196003F214010A68C2F3B4
:10139000402111B14FF6FF7017E025461C46154954
:1013A0002046FFF7DBF978B91149096859B135B919
:1013B00006200B4C2468A0474FF6FF7005E0691E1D
:1013C00008460546FFE7EAE70020DDF800E003B045
:1013D000704700BF00540040DC00002018010020CE
:1013E0001401002000580040E00000201C010020F3
:1013F000E40000200100030081B0CDF800E00348C4
:10140000FFF77EFFDDF800E001B0704700480040C4
:1014100081B0CDF800E00348FFF76CFFDDF800E095
:1014200001B070470048004081B0CDF800E00348AB
:10143000FFF754FFDDF800E001B07047004C0040BA
:1014400081B0CDF800E00348FFF748FFDDF800E089
:1014500001B070470050004081B0CDF800E0034873
:10146000FFF74EFFDDF800E001B07047004C004090
:1014700081B0CDF800E00348FFF73CFFDDF800E065
:1014800001B07047004C004081B0CDF800E081B25F
:101490000348FFF73BFFDDF800E001B0704700BFF5
:1014A0000050004081B0CDF800E00348FFF728FF6E
:1014B000DDF800E001B070470038014081B0CDF8A0
:1014C00000E00348FFF716FFDDF800E001B07047C9
:1014D0000038014081B0CDF800E00348FFF7FEFE80
:1014E000DDF800E001B070470044004081B0CDF865
:1014F00000E00348FFF7F2FEDDF800E001B07047BE
:101500000048004081B0CDF800E00348FFF7F8FE46
:10151000DDF800E001B070470044004081B0CDF834
:1015200000E00348FFF7E6FEDDF800E001B0704799
:101530000044004081B0CDF800E00348FFF7DAFE38
:10154000DDF800E001B070470050004081B0CDF8F8
:1015500000E081B20348FFF7D9FEDDF800E001B0FA
:10156000704700BF0044004081B0CDF800E00B465A
:10157000014608461A46FFF77DFE40F2000000DDF6
:10158000012008B1084600E01846DDF800E001B08F
:101590007047FFFF81B0FAB590EA02064CBF4FF0EA
:1015A00000464FF00006010243001B0E12BF41F03F
:1015B00000414FF000003BE0FF2B35D05FEA0224F2
:1015C0005FEA42055FEA156511BF44F000444FF041
:1015D000FF4030432CE0FF2D26D05B1B002020274E
:1015E00064084908A14240EB000028BF091B7F1E88
:1015F00004D0002918BF4900F4D1B84010F0004FC2
:1016000004BF4000B3F1010380302CBF5B1C4000DD
:101610007F33DCBF4FF000000AE0FF2B04D2400A0A
:1016200040EAC350304303E0FF27FF0556EA0700B6
:10163000BDE8FA4001B0704781B02DE9FA414FEAA8
:1016400002244FEA42052D0E04D1002C18BF4FF0A2
:1016500000006CE044F00044FF2D5FD04FEA94049A
:10166000002A48BF64424FEA00214FEA40031B0EA4
:1016700005D1002914BF4FF00000104657E041F09B
:101680000041FF2B4BD04FEA9101002848BF49424F
:101690005E1B41BF0F4621463C46764248BF2B4663
:1016A000192E47BF44FA06F7C9194FF0000803E0A6
:1016B000C6F11C0704FA07F8002904BF4FF0000028
:1016C00035E046BF49424FF001074FF00007A3F154
:1016D00001034900FBD511F080040DD001F0200575
:1016E00048EA0508803128BF5B1C01F0400458EA35
:1016F000040808BF21F480719B1CDCBF4FF0000080
:1017000015E0FF2B0DD221F0FF014FEA41014FEA16
:10171000512040EAC35040EAC77008E010464FEA43
:10172000D0774FEAC777FF204FEAC0503843BDE873
:10173000FA4101B07047FFFF81B082F000422DE90D
:10174000FA414FEA02244FEA42052D0E04D1002C43
:1017500018BF4FF000006CE044F00044FF2D5FD054
:101760004FEA9404002A48BF64424FEA00214FEA3E
:1017700040031B0E05D1002914BF4FF00000104696
:1017800057E041F00041FF2B4BD04FEA9101002878
:1017900048BF49425E1B41BF0F4621463C46764248
:1017A00048BF2B46192E47BF44FA06F7C9194FF018
:1017B000000803E0C6F11C0704FA07F8002904BF7B
:1017C0004FF0000035E046BF49424FF001074FF0AF
:1017D0000007A3F101034900FBD511F080040DD0EF
:1017E00001F0200548EA0508803128BF5B1C01F0A4
:1017F000400458EA040808BF21F480719B1CDCBF38
:101800004FF0000015E0FF2B0DD221F0FF014FEA51
:1018100041014FEA512040EAC35040EAC77008E056
:1018200010464FEAD0774FEAC777FF204FEAC05003
:101830003843BDE8FA4101B07047FFFF81B0CDF8F1
:1018400000E00B46014608461A46FFF713FD40F23A
:10185000000000DA012008B1084600E01846DDF873
:1018600000E001B07047FFFF81B0002808BF0FE023
:1018700002B54FF09E0202D4521E4000FCD58030CB
:101880002CBF521C4000400A40EAC250BDE8024052
:1018900001B0704781B0CDF800E081B20348FFF796
:1018A00035FDDDF800E001B0704700BF004C00409E
:1018B00081B0CDF800E008B413460A46C1B204482E
:1018C000FFF7FAFB01B0DDF800E001B0704700BFA0
:1018D0000054004081B0CDF800E00348FFF710FD50
:1018E000DDF800E001B070470050004081B0CDF855
:1018F00000E081B20348FFF709FDDDF800E001B028
:10190000704700BF0048004082B0CDF800E001AA57
:1019100040F08001117000F0EFFB01AA0F49097837
:101920000023C8B21146012200F07CF90DF1050236
:101930000A4909780123C8B211460222FFF788FC40
:101940000DF10502511C0878C0B2010288B211786D
:10195000084380B2DDF800E002B07047F0000020DC
:1019600081B0CDF800E008B413460A46C1B204487D
:10197000FFF7A2FB01B0DDF800E001B0704700BF47
:101980000058004081B0CDF800E00348FFF7A6FC06
:10199000DDF800E001B070470038014081B0CDF8BB
:1019A00000E00348FFF7C2FCDDF800E001B070473B
:1019B0000054004081B0CDF800E00A4601460348DB
:1019C000FFF7ACFADDF800E001B0704700540040CA
:1019D00081B0CDF800E0044A89B2FFF783F8DDF862
:1019E00000E001B0704700BF1400080081B0CDF8DE
:1019F00000E0019D2C4610B408B493B28AB20146AF
:101A00000348FFF769F902B0DDF800E001B0704764
:101A10000048004081B0CDF800E0019D2C4610B494
:101A200008B493B28AB201460348FFF755F902B0F1
:101A3000DDF800E001B070470044004081B0CDF80F
:101A400000E0019D2C4610B408B493B28AB201465E
:101A50000348FFF741F902B0DDF800E001B070473C
:101A60000038014081B0CDF800E04FF0420289B269
:101A7000FFF738F8DDF800E001B0704781B0CDF82D
:101A800000E081B20348FFF741FCDDF800E001B05F
:101A9000704700BF0038014081B0CDF800E0034836
:101AA000FFF744FCDDF800E001B07047005800404B
:101AB00081B0CDF800E0094902B440F2000340F2E1
:101AC000000240F20001FFF791FF01B0044A05490E
:101AD0000A600020DDF800E001B070477C2A0000B9
:101AE000ED180000EC00002085B0CDF800E0814644
:101AF0008A46934651464846FFF736FD5946FFF75A
:101B000033FD844651464846FFF798FE5946FFF795
:101B100095FE01904FF000006246FFF7ABFB40F2EC
:101B2000000000DA012048B1019A6046FFF704FE88
:101B30006246FFF72FFD0246114602E04FF0000219
:101B400011464FF000000A46FFF794FB40F20000F8
:101B500000D1012010B14FF000005DE04846624620
:101B6000FFF788FB40F2000000D1012070B15A4617
:101B70005046FFF7E1FD0490019A6046FFF7DCFD57
:101B80000290029A0498FFF705FD2FE05046624646
:101B9000FFF770FB40F2000000D1012090B14A46EF
:101BA0005846FFF7C9FD0490019A6046FFF7C4FD4F
:101BB0000290029A0498FFF7EDFC4FF08042FFF785
:101BC0003BFD13E052464846FFF7B6FD0490019AEC
:101BD0006046FFF7B1FD0290029A0498FFF7DAFC25
:101BE0004FF08142FFF728FD014608460C4AFFF7F7
:101BF000D1FC01464FF00002FFF73CFB40F2000031
:101C000000DA012038B108464FF07E52FFF714FD8C
:101C10000246104600E00846DDF800E005B07047D7
:101C20000000C04082B0CDF800E040F20004ADF802
:101C30000440054C2468A047BDF90440044320B289
:101C4000DDF800E002B07047FC00002081B0CDF864
:101C500000E0016808460449FFF7ACFE0020DDF80B
:101C600000E001B0704700BFC02B000084B0CDF889
:101C700000E0FFF749FE81B2ADF804101420FFF731
:101C800043FEBDF8041083B288B2FFF7EDFD0146B4
:101C9000039198B2FFF7E8FD029003980191029931
:101CA0000A46FFF777FC0199DDF800E004B07047C1
:101CB00081B0CDF800E0094902B440F2000340F2DF
:101CC000000240F20001FFF7A5FE01B0044A0549F9
:101CD0000A600020DDF800E001B07047542B0000DE
:101CE0004D150000EC00002081B0CDF800E009495E
:101CF00002B440F2000340F2000240F20001FFF79C
:101D00009DFE01B0044A05490A600020DDF800E0AC
:101D100001B07047E82A00007D1A0000EC000020A6
:101D2000026806490A60011D0A6805490A6000F256
:101D300008010A6803490A60704700BFF8000020E4
:101D4000FC000020F400002081B0CDF800E0016824
:101D500008460449FFF72EFE0020DDF800E001B040
:101D6000704700BFC02B000081B0CDF800E00178C3
:101D7000CCB2A0B2034C2468A0470020DDF800E0FC
:101D800001B07047EC00002081B0CDF800E0A9E080
:101D9000012905D140F210016548FFF763FE04E018
:101DA00040F210016248FFF713FEBBE0012905D1A4
:101DB00040F204015F48FFF755FE04E040F20401E1
:101DC0005C48FFF705FEADE0012905D142F20001B4
:101DD0005948FFF747FE04E042F200015648FFF77A
:101DE000F7FD9FE0012905D140F200415148FFF77E
:101DF00039FE04E040F200414E48FFF7E9FD91E072
:101E0000012905D140F600014A48FFF72BFE04E006
:101E100040F600014748FFF7DBFD83E0012905D1CB
:101E200041F200014348FFF71DFE04E041F20001CA
:101E30004048FFF7CDFD75E0012905D140F20101D1
:101E40003B48FFF70FFE04E040F201013848FFF77E
:101E5000BFFD67E0012905D140F200413648FFF798
:101E600001FE04E040F200413348FFF7B1FD59E0C4
:101E7000012905D140F200212F48FFF7F3FD04E0CE
:101E800040F200212C48FFF7A3FD4BE0012905D1CA
:101E900040F200112848FFF7E5FD04E040F2001190
:101EA0002548FFF795FD3DE0012905D140F24001AD
:101EB0002248FFF7D7FD04E040F240011F48FFF73A
:101EC00087FD2FE0012905D140F280011B48FFF773
:101ED000C9FD04E040F280011848FFF779FD21E0D8
:101EE000012020E000283FF453AF01283FF45EAF0B
:101EF00002283FF469AF03283FF474AF04283FF48D
:101F00007FAF05283FF48AAF06283FF495AF072836
:101F1000A0D00828ACD00928B8D00A28C4D00B28F3
:101F2000D0D0DDE70020DDF800E001B0704700BF51
:101F3000000801400010014000140140000C014065
:101F400081B0CDF800E0A9E0012905D140F22001DF
:101F50006548FFF787FD04E040F220016248FFF783
:101F600037FDBBE0012905D140F208015F48FFF7CA
:101F700079FD04E040F208015C48FFF729FDADE07F
:101F8000012905D144F200015948FFF76BFD04E037
:101F900044F200015648FFF71BFD9FE0012905D1DF
:101FA00040F200415148FFF75DFD04E040F200417E
:101FB0004E48FFF70DFD91E0012905D140F60001E3
:101FC0004A48FFF74FFD04E040F600014748FFF79D
:101FD000FFFC83E0012905D141F200014348FFF7EE
:101FE00041FD04E041F200014048FFF7F1FC75E0DB
:101FF000012905D141F200013D48FFF733FD04E01E
:1020000041F200013A48FFF7E3FC67E0012905D1FE
:1020100040F600013648FFF725FD04E040F60001D8
:102020003348FFF7D5FC59E0012905D140F24001C2
:102030002F48FFF717FD04E040F240012C48FFF75E
:10204000C7FC4BE0012905D140F220012848FFF7E9
:1020500009FD04E040F220012548FFF7B9FC3DE00E
:10206000012905D140F240012248FFF7FBFC04E0C2
:1020700040F240011F48FFF7ABFC2FE0012905D1DA
:1020800040F280011B48FFF7EDFC04E040F28001C4
:102090001848FFF79DFC21E0012020E000283FF4D4
:1020A00053AF01283FF45EAF02283FF469AF032825
:1020B0003FF474AF04283FF47FAF05283FF48AAFA4
:1020C00006283FF495AF0728A0D00828ACD00928EF
:1020D000B8D00A28C4D00B28D0D0DDE70020DDF826
:1020E00000E001B0704700BF00080140001001404F
:1020F00000140140000C014082B0CDF800E040F235
:102100000004ADF80440064C2468A047BDF9041053
:1021100041EA000000B2DDF800E002B0704700BF05
:10212000F800002000F230011C310A6807490A60FB
:10213000026807490A6000F208010A6805490A6056
:1021400000F218010A6804490A6070470001002083
:1021500004010020080100200C01002081B0CDF80E
:1021600000E0094902B440F2000340F2000240F2EC
:102170000001FFF74FFC01B0044A05490A60002046
:10218000DDF800E001B07047542B00004D15000051
:10219000EC000020A086010044F67F77C0F2120711
:1021A0007F1EFDD100BF00BF00BF00BF00BF704752
:1021B00081B0CDF800E0014656480A46FFF75AF8CC
:1021C00040F2000000DC012058B153480A46FFF7F6
:1021D00051F840F2000000DB012010B14F490878AF
:1021E00094E04F480A46FFF745F840F2000000DC53
:1021F000012058B14B480A46FFF73CF840F2000076
:1022000000DB012010B1484908787FE047480A46C2
:10221000FFF730F840F2000000DC012058B14448DC
:102220000A46FFF727F840F2000000DB012010B15A
:10223000404908786AE040480A46FFF71BF840F238
:10224000000000DC012058B13C480A46FFF712F8B4
:1022500040F2000000DB012010B13949087855E058
:1022600038480A46FFF706F840F2000000DC01207B
:1022700058B135480A46FEF7FDFF40F2000000DB8A
:10228000012010B13149087840E031480A46FEF794
:10229000F1FF40F2000000DC012058B12D480A4651
:1022A000FEF7E8FF40F2000000DD012010B12A49EE
:1022B00008782BE029480A46FEF7DCFF40F20000D0
:1022C00000DC012058B126480A46FEF7D3FF40F251
:1022D000000000DB012010B12249087816E02248F6
:1022E0000A46FEF7C7FF40F2000000DC012058B1AB
:1022F0001E480A46FEF7BEFF40F2000000DB012048
:1023000010B11B49087801E01A490878DDF800E0AF
:1023100001B07047B6F37D3F77BE7F3FD30000200A
:102320009A99793F29ED7D3FD40000201F856B3FAE
:102330000C93793FD5000020E0BE1E3F96436B3FD3
:10234000D60000204260053F52B81E3FD700002053
:10235000D7A3F03EB81E053FD80000203D0A573EE7
:10236000C520F03ED9000020B81E853DEC51383E16
:10237000DA000020DB00002083B0CDF800E0024648
:1023800010460D228DF808200A228DF809201FE042
:10239000FFF7EAFC23E002782AB10190FFF7E4FCA2
:1023A0000198401CF7E71AE002782AB10190FFF784
:1023B000DBFC0198401CF7E702AA1046FFF7D4FCAB
:1023C0000DF109021046FFF7CFFC08E0062007E0F8
:1023D0000029DDD00129DED00229E5D0F6E7002072
:1023E000DDF800E003B0704782B0CDF800E001AB4B
:1023F00040F080021A705A1C1170FFF77DFE01AB8D
:10240000054A127819460123D0B20222FFF70AFCCE
:10241000DDF800E002B07047F000002081B0CDF898
:1024200000E011E00846FFF743FB16E00846FFF71F
:102430003FFC12E00846FFF757FC0EE00846FFF7A6
:102440008DFE0AE0012008E00028EBD00128EDD045
:102450002028EFD03028F1D0F4E7DDF800E001B01B
:102460007047FFFF81B0CDF800E08B4609E0584689
:10247000FFF76AFC0AE05846FFF7E8FB06E0012098
:1024800004E00028F3D00128F5D0F8E7DDF800E0FB
:1024900001B0704781B0CDF800E00446054B1A70DA
:1024A0000846FFF73DFC2046FFF73CFEDDF800E064
:1024B00001B07047F000002081B0CDF800E05FFA75
:1024C00081F95FFA82FA0FE05FFA8AF15FFA89F028
:1024D000FFF75AFC0DE05FFA8AF15FFA89F0FFF727
:1024E0002FFD06E0012004E00028EDD00128F2D005
:1024F000F8E7DDF800E001B07047FFFF83B0CDF8EA
:1025000000E08DF804108DF80820084C2468A047DE
:102510009DF80400064C2468A0479DF80800054C6F
:102520002468A047DDF800E003B0704704010020F4
:10253000080100200C01002085B0CDF800E000204B
:102540008DF810009DF81000102819D21620FFF702
:102550008DFB01901820FFF789FB02901A20FFF7EE
:1025600085FB024602990198FFF7BEFA039AFFF72E
:1025700063F803909DF81000401C8DF81000E1E70F
:1025800003984FF08342FFF705F803900046DDF80B
:1025900000E005B07047FFFF81B0CDF800E02922D0
:1025A00014491548FFF776FF14480221FFF7E4FEAF
:1025B000102040F00800C0B240F00200C0B240F06D
:1025C0000100C1B20020FFF70FFF02210F20FFF72B
:1025D0000BFF00210120FFF707FF0122012101204D
:1025E000FFF78CFF06480221FFF7C6FEDDF800E08A
:1025F00001B070479C2C00002C2C0000150000201E
:102600002900002081B04FF000094FF0000CBDEB15
:102610000A0F04DCBDEB0B0F01DBD446EA464BF896
:10262000049BBBEB0A0FFAD1BCEB0A0F05DDE246B7
:10263000D9F800B00BF1040BF1E701B07047FFFFD0
:1026400081B01548006840F001011348016013494A
:102650001348016010480168124801400E480160AB
:102660000D4801686FF4802001400B4801600C4860
:1026700001686FF4FE0001400948016006480168E6
:102680006FF0A0500140044801604FF0000106487F
:10269000016001B0704700BF001002400000FFF071
:1026A00004100240FFFFF6FE2C1002400204060850
:1026B00081B0CDF800E0012207210020FFF7FCFEE9
:1026C000002206210020FFF7F7FE00220221002051
:1026D000FFF7F2FE002200210020FFF7EDFE0E487A
:1026E00001460020FFF7BEFE42F280512020FFF796
:1026F00095FE0A480221FFF73FFE44F67F77C0F2BD
:1027000012077F1EFDD100BF00BF00BF00BF00BF8A
:10271000DDF800E001B070479421000000000020C7
:1027200081B0CDF800E0FFF707FF2B490860FFF705
:102730003FFD2A49087028E029480221FFF71CFEC6
:1027400044E028480221FFF717FE3FE02648022117
:10275000FFF712FE3AE025480221FFF70DFE35E0B3
:1027600023480221FFF708FE30E022480221FFF74C
:1027700003FE2BE020480221FFF7FEFD26E01F4864
:102780000221FFF7F9FD21E020E01448007801283C
:10279000D2D0124800780228D3D0104800780328FD
:1027A000D4D00E4800780428D5D00C4800780528ED
:1027B000D6D00A4800780628D7D0084800780728DD
:1027C000D8D0064800780828D9D0DDE7FFF7E4FC28
:1027D000DDF800E001B07047E80000204400002070
:1027E00045000020580000206800002079000020EB
:1027F0008C0000209D000020AE000020C0000020C2
:1028000081B01CF8019B0BF8019BBBEB0A0FF8D1C0
:1028100001B0704781B002490248016001B07047C1
:10282000401901001001002081B0FEE701B070479F
:1028300000F00EF800F078FAFFF7ECFF00F034FA41
:10284000FFF736FFFFF7A8FEFFF76AFFFCE7FEE79A
:1028500081B0CDF800E0464A464B474C47494BF61D
:102860008030814206D94648006840F00201444861
:10287000016011E045F6C050814206D94048006829
:1028800040F001013E48016006E03D4801686FF0FC
:10289000070001403A480160FFF7D2FE3948036063
:1028A00039480460394802EA00013948016002F001
:1028B000010040B119463648006800F002000028C7
:1028C00000D1F8E700E0194602F4803040B10B4631
:1028D0002F48006800F40030002800D1F8E700E03D
:1028E0000B4602F0805068B12948006840F08051E2
:1028F000274801602648006800F00050002800D1F9
:10290000F8E7FFE702F0806078B12148006840F006
:1029100080611F48016011461A461D48006800F09A
:102920000060002800D1F8E701E011461A4601F0E6
:10293000807070B11648006840F0807114480160E2
:1029400011461348006800F0007000B9F9E70A4624
:10295000FFE70C48006800F00C01900000F00C004C
:10296000814200D0F5E7DDF800E001B0704700BF1C
:102970008100010502841D00440601004019010088
:1029800000200240041002402C100240FFFF0F0004
:10299000001002402D2D2D2053797374656D204950
:1029A0006E6974202D2D2D20002D2D2D20436F6C50
:1029B0006F7220496E6974202D2D2D20002D2D2D34
:1029C000205374617274206D6561737572656D65F5
:1029D0006E74202D2D2D2000002D2D2D20436F6C89
:1029E0006F723A204F52414E474520002D2D2D2029
:1029F000436F6C6F723A2052454420002D2D2D20DC
:102A0000436F6C6F723A2050494E4B20002D2D2D94
:102A100020436F6C6F723A20505552504C45200045
:102A20002D2D2D20436F6C6F723A20424C5545205E
:102A3000002D2D2D20436F6C6F723A204359414E6B
:102A400020002D2D2D20436F6C6F723A2047524588
:102A5000454E20002D2D2D20436F6C6F723A20596A
:102A6000454C4C4F5720000102030405060708009F
:102A7000000000000000000000000000380000001E
:102A800039000000FFFFFFFF000000000000000011
:102A90000000000000000000000000000000000036
:102AA0000000000000000000000000000000000026
:102AB00018080000180000000000000000000000DE
:102AC0000000000000000000000000000000000006
:102AD00000000000000000000000000000000000F6
:102AE0000000000030001408090000000A00000087
:102AF000FFFFFFFF000000000000000000000000DA
:102B000000000000000000000000000000000000C5
:102B10000000000000000000000000001808000095
:102B2000180000000000000000000000000000008D
:102B30000000000000000000000000000000000095
:102B40000000000000000000000000000000000085
:102B5000040000003500000036000000FFFFFFFF0A
:102B60000000000000000000000000000000000065
:102B70000000000000000000000000000000000055
:102B8000000000000000000018080000180000000D
:102B90000000000000000000000000000000000035
:102BA0000000000000000000000000000000000025
:102BB0000000000000000000000000000800000805
:102BC0001600000017000000FFFFFFFF00000000DC
:102BD00000000000000000000000000000000000F5
:102BE00000000000000000000000000000000000E5
:102BF0000000000028080000280800000000000075
:102C000000000000000000000000000000000000C4
:102C100000000000000000000000000000000000B4
:102C2000000000000000000002000000F1060000AB
:102C3000E5060000D9060000FD060000210700009F
:102C40001507000009070000CD06000091060000EE
:102C50009D06000085060000C1060000FFFFFFFF83
:102C6000FFFFFFFFFFFFFFFFFFFFFFFFFFFFFFFF74
:102C7000FFFFFFFFFFFFFFFFFFFFFFFFFFFFFFFF64
:102C8000FFFFFFFFFFFFFFFFFFFFFFFF0000000050
:102C90000102030401020304060708099D1900004C
:102CA000B11800008107000000B5DFF814B0DFF8AC
:102CB00014A0DFF814C0FFF7A3FD00BD704700BFEC
:102CC00000000020E800002094290000FFFFFFFF23
:102CD000FFFFFFFFFFFFFFFFFFFFFFFFFFFFFFFF04
:102CE000FFFFFFFFFFFFFFFFFFFFFFFFFFFFFFFFF4
:102CF000FFFFFFFFFFFFFFFFFFFFFFFFFFFFFFFFE4
:102D0000FFFFFFFFFFFFFFFFFFFFFFFFFFFFFFFFD3
:102D1000FFFFFFFFFFFFFFFFFFFFFFFFFFFFFFFFC3
:102D2000FFFFFFFFFFFFFFFF00B5DFF810B0DFF888
:102D300010A0FFF767FC00BD704700BF0000002037
:102D40003C010020FFFFFFFFFFFFFFFFFFFFFFFF32
:00000001FF
